{
  "_format": "hh-sol-artifact-1",
  "contractName": "konzertoTicketNFT",
  "sourceName": "contracts/konzerto-contract-v1.sol",
  "abi": [
    {
      "inputs": [],
      "stateMutability": "nonpayable",
      "type": "constructor"
    },
    {
      "anonymous": false,
      "inputs": [
        {
          "indexed": true,
          "internalType": "address",
          "name": "owner",
          "type": "address"
        },
        {
          "indexed": true,
          "internalType": "address",
          "name": "approved",
          "type": "address"
        },
        {
          "indexed": true,
          "internalType": "uint256",
          "name": "tokenId",
          "type": "uint256"
        }
      ],
      "name": "Approval",
      "type": "event"
    },
    {
      "anonymous": false,
      "inputs": [
        {
          "indexed": true,
          "internalType": "address",
          "name": "owner",
          "type": "address"
        },
        {
          "indexed": true,
          "internalType": "address",
          "name": "operator",
          "type": "address"
        },
        {
          "indexed": false,
          "internalType": "bool",
          "name": "approved",
          "type": "bool"
        }
      ],
      "name": "ApprovalForAll",
      "type": "event"
    },
    {
      "anonymous": false,
      "inputs": [
        {
          "indexed": false,
          "internalType": "address",
          "name": "sender",
          "type": "address"
        },
        {
          "indexed": false,
          "internalType": "uint256",
          "name": "tokenId",
          "type": "uint256"
        }
      ],
      "name": "NewEpicNFTMinted",
      "type": "event"
    },
    {
      "anonymous": false,
      "inputs": [
        {
          "indexed": true,
          "internalType": "address",
          "name": "from",
          "type": "address"
        },
        {
          "indexed": true,
          "internalType": "address",
          "name": "to",
          "type": "address"
        },
        {
          "indexed": true,
          "internalType": "uint256",
          "name": "tokenId",
          "type": "uint256"
        }
      ],
      "name": "Transfer",
      "type": "event"
    },
    {
      "inputs": [
        {
          "internalType": "address",
          "name": "to",
          "type": "address"
        },
        {
          "internalType": "uint256",
          "name": "tokenId",
          "type": "uint256"
        }
      ],
      "name": "approve",
      "outputs": [],
      "stateMutability": "nonpayable",
      "type": "function"
    },
    {
      "inputs": [
        {
          "internalType": "address",
          "name": "owner",
          "type": "address"
        }
      ],
      "name": "balanceOf",
      "outputs": [
        {
          "internalType": "uint256",
          "name": "",
          "type": "uint256"
        }
      ],
      "stateMutability": "view",
      "type": "function"
    },
    {
      "inputs": [
        {
          "internalType": "uint256",
          "name": "tokenId",
          "type": "uint256"
        }
      ],
      "name": "getApproved",
      "outputs": [
        {
          "internalType": "address",
          "name": "",
          "type": "address"
        }
      ],
      "stateMutability": "view",
      "type": "function"
    },
    {
      "inputs": [
        {
          "internalType": "address",
          "name": "owner",
          "type": "address"
        },
        {
          "internalType": "address",
          "name": "operator",
          "type": "address"
        }
      ],
      "name": "isApprovedForAll",
      "outputs": [
        {
          "internalType": "bool",
          "name": "",
          "type": "bool"
        }
      ],
      "stateMutability": "view",
      "type": "function"
    },
    {
      "inputs": [],
      "name": "makeAKonzertoTicketNFT",
      "outputs": [],
      "stateMutability": "nonpayable",
      "type": "function"
    },
    {
      "inputs": [],
      "name": "name",
      "outputs": [
        {
          "internalType": "string",
          "name": "",
          "type": "string"
        }
      ],
      "stateMutability": "view",
      "type": "function"
    },
    {
      "inputs": [
        {
          "internalType": "uint256",
          "name": "tokenId",
          "type": "uint256"
        }
      ],
      "name": "ownerOf",
      "outputs": [
        {
          "internalType": "address",
          "name": "",
          "type": "address"
        }
      ],
      "stateMutability": "view",
      "type": "function"
    },
    {
      "inputs": [
        {
          "internalType": "uint256",
          "name": "tokenId",
          "type": "uint256"
        }
      ],
      "name": "pickRandomTicketClass",
      "outputs": [
        {
          "internalType": "string",
          "name": "",
          "type": "string"
        }
      ],
      "stateMutability": "view",
      "type": "function"
    },
    {
      "inputs": [
        {
          "internalType": "uint256",
          "name": "tokenId",
          "type": "uint256"
        }
      ],
      "name": "pickRandomTicketConcert",
      "outputs": [
        {
          "internalType": "string",
          "name": "",
          "type": "string"
        }
      ],
      "stateMutability": "view",
      "type": "function"
    },
    {
      "inputs": [
        {
          "internalType": "uint256",
          "name": "tokenId",
          "type": "uint256"
        }
      ],
      "name": "pickRandomTicketPlace",
      "outputs": [
        {
          "internalType": "string",
          "name": "",
          "type": "string"
        }
      ],
      "stateMutability": "view",
      "type": "function"
    },
    {
      "inputs": [
        {
          "internalType": "uint256",
          "name": "tokenId",
          "type": "uint256"
        }
      ],
      "name": "pickRandomTicketVenues",
      "outputs": [
        {
          "internalType": "string",
          "name": "",
          "type": "string"
        }
      ],
      "stateMutability": "view",
      "type": "function"
    },
    {
      "inputs": [
        {
          "internalType": "address",
          "name": "from",
          "type": "address"
        },
        {
          "internalType": "address",
          "name": "to",
          "type": "address"
        },
        {
          "internalType": "uint256",
          "name": "tokenId",
          "type": "uint256"
        }
      ],
      "name": "safeTransferFrom",
      "outputs": [],
      "stateMutability": "nonpayable",
      "type": "function"
    },
    {
      "inputs": [
        {
          "internalType": "address",
          "name": "from",
          "type": "address"
        },
        {
          "internalType": "address",
          "name": "to",
          "type": "address"
        },
        {
          "internalType": "uint256",
          "name": "tokenId",
          "type": "uint256"
        },
        {
          "internalType": "bytes",
          "name": "_data",
          "type": "bytes"
        }
      ],
      "name": "safeTransferFrom",
      "outputs": [],
      "stateMutability": "nonpayable",
      "type": "function"
    },
    {
      "inputs": [
        {
          "internalType": "address",
          "name": "operator",
          "type": "address"
        },
        {
          "internalType": "bool",
          "name": "approved",
          "type": "bool"
        }
      ],
      "name": "setApprovalForAll",
      "outputs": [],
      "stateMutability": "nonpayable",
      "type": "function"
    },
    {
      "inputs": [
        {
          "internalType": "bytes4",
          "name": "interfaceId",
          "type": "bytes4"
        }
      ],
      "name": "supportsInterface",
      "outputs": [
        {
          "internalType": "bool",
          "name": "",
          "type": "bool"
        }
      ],
      "stateMutability": "view",
      "type": "function"
    },
    {
      "inputs": [],
      "name": "symbol",
      "outputs": [
        {
          "internalType": "string",
          "name": "",
          "type": "string"
        }
      ],
      "stateMutability": "view",
      "type": "function"
    },
    {
      "inputs": [
        {
          "internalType": "uint256",
          "name": "tokenId",
          "type": "uint256"
        }
      ],
      "name": "tokenURI",
      "outputs": [
        {
          "internalType": "string",
          "name": "",
          "type": "string"
        }
      ],
      "stateMutability": "view",
      "type": "function"
    },
    {
      "inputs": [
        {
          "internalType": "address",
          "name": "from",
          "type": "address"
        },
        {
          "internalType": "address",
          "name": "to",
          "type": "address"
        },
        {
          "internalType": "uint256",
          "name": "tokenId",
          "type": "uint256"
        }
      ],
      "name": "transferFrom",
      "outputs": [],
      "stateMutability": "nonpayable",
      "type": "function"
    }
  ],
  "bytecode": "0x60806040526040518061016001604052806101378152602001620047956101379139600890805190602001906200003892919062000838565b5060405180608001604052806040518060400160405280601281526020017f436c6173733a20416c6c2d6163636573732c000000000000000000000000000081525081526020016040518060400160405280601181526020017f436c6173733a20556c747261205649502c00000000000000000000000000000081525081526020016040518060400160405280600b81526020017f436c6173733a205649502c00000000000000000000000000000000000000000081525081526020016040518060400160405280600f81526020017f436c6173733a2047656e6572616c2c0000000000000000000000000000000000815250815250600990600462000140929190620008c9565b506040518060c001604052806040518060400160405280601381526020017f436f6e636572743a204261642042756e6e792c0000000000000000000000000081525081526020016040518060400160405280601781526020017f436f6e636572743a204d617274696e204761727269782c00000000000000000081525081526020016040518060400160405280600f81526020017f436f6e636572743a2041432f44432c000000000000000000000000000000000081525081526020016040518060400160405280601281526020017f436f6e636572743a20646561646d6175352c000000000000000000000000000081525081526020016040518060400160405280600e81526020017f436f6e636572743a20334c41552c00000000000000000000000000000000000081525081526020016040518060400160405280601281526020017f436f6e636572743a20436f6c64706c61792c0000000000000000000000000000815250815250600a906006620002be92919062000930565b506040518061014001604052806040518060400160405280600181526020017f310000000000000000000000000000000000000000000000000000000000000081525081526020016040518060400160405280600181526020017f320000000000000000000000000000000000000000000000000000000000000081525081526020016040518060400160405280600181526020017f330000000000000000000000000000000000000000000000000000000000000081525081526020016040518060400160405280600181526020017f340000000000000000000000000000000000000000000000000000000000000081525081526020016040518060400160405280600181526020017f350000000000000000000000000000000000000000000000000000000000000081525081526020016040518060400160405280600181526020017f360000000000000000000000000000000000000000000000000000000000000081525081526020016040518060400160405280600181526020017f370000000000000000000000000000000000000000000000000000000000000081525081526020016040518060400160405280600181526020017f380000000000000000000000000000000000000000000000000000000000000081525081526020016040518060400160405280600181526020017f390000000000000000000000000000000000000000000000000000000000000081525081526020016040518060400160405280600281526020017f3130000000000000000000000000000000000000000000000000000000000000815250815250600b90600a6200052992919062000997565b506040518060a001604052806040518060400160405280601f81526020017f2c20506c6163653a2052656420526f636b7320416d706869746865617472650081525081526020016040518060400160405280601781526020017f2c20506c6163653a20537461706c65732043656e74657200000000000000000081525081526020016040518060400160405280601781526020017f2c20506c6163653a204d6f766973746172204172656e6100000000000000000081525081526020016040518060400160405280601681526020017f2c20506c6163653a20416c6c69616e7a204172656e610000000000000000000081525081526020016040518060400160405280601b81526020017f2c20506c6163653a204a6f68616e20437275796666204172656e610000000000815250815250600c9060056200066c929190620009fe565b503480156200067a57600080fd5b506040518060400160405280600981526020017f5469636b65744e465400000000000000000000000000000000000000000000008152506040518060400160405280600881526020017f4b4f4e5a4552544f0000000000000000000000000000000000000000000000008152508160009080519060200190620006ff92919062000838565b5080600190805190602001906200071892919062000838565b505050620007666040518060400160405280601e81526020017f54686973206973206d79204e465420636f6e74726163742e20576f61682100008152506200076c60201b620014171760201c565b62000c1f565b6200080c8160405160240162000783919062000b33565b6040516020818303038152906040527f41304fac000000000000000000000000000000000000000000000000000000007bffffffffffffffffffffffffffffffffffffffffffffffffffffffff19166020820180517bffffffffffffffffffffffffffffffffffffffffffffffffffffffff83818316178352505050506200080f60201b60201c565b50565b60008151905060006a636f6e736f6c652e6c6f679050602083016000808483855afa5050505050565b828054620008469062000ba9565b90600052602060002090601f0160209004810192826200086a5760008555620008b6565b82601f106200088557805160ff1916838001178555620008b6565b82800160010185558215620008b6579182015b82811115620008b557825182559160200191906001019062000898565b5b509050620008c5919062000a65565b5090565b8280548282559060005260206000209081019282156200091d579160200282015b828111156200091c5782518290805190602001906200090b92919062000838565b5091602001919060010190620008ea565b5b5090506200092c919062000a84565b5090565b82805482825590600052602060002090810192821562000984579160200282015b82811115620009835782518290805190602001906200097292919062000838565b509160200191906001019062000951565b5b50905062000993919062000a84565b5090565b828054828255906000526020600020908101928215620009eb579160200282015b82811115620009ea578251829080519060200190620009d992919062000838565b5091602001919060010190620009b8565b5b509050620009fa919062000a84565b5090565b82805482825590600052602060002090810192821562000a52579160200282015b8281111562000a5157825182908051906020019062000a4092919062000838565b509160200191906001019062000a1f565b5b50905062000a61919062000a84565b5090565b5b8082111562000a8057600081600090555060010162000a66565b5090565b5b8082111562000aa8576000818162000a9e919062000aac565b5060010162000a85565b5090565b50805462000aba9062000ba9565b6000825580601f1062000ace575062000aef565b601f01602090049060005260206000209081019062000aee919062000a65565b5b50565b600062000aff8262000b57565b62000b0b818562000b62565b935062000b1d81856020860162000b73565b62000b288162000c0e565b840191505092915050565b6000602082019050818103600083015262000b4f818462000af2565b905092915050565b600081519050919050565b600082825260208201905092915050565b60005b8381101562000b9357808201518184015260208101905062000b76565b8381111562000ba3576000848401525b50505050565b6000600282049050600182168062000bc257607f821691505b6020821081141562000bd95762000bd862000bdf565b5b50919050565b7f4e487b7100000000000000000000000000000000000000000000000000000000600052602260045260246000fd5b6000601f19601f8301169050919050565b613b668062000c2f6000396000f3fe608060405234801561001057600080fd5b50600436106101165760003560e01c80636804fded116100a2578063a66d506811610071578063a66d506814610317578063b88d4fde14610347578063c41794eb14610363578063c87b56dd1461036d578063e985e9c51461039d57610116565b80636804fded1461027d57806370a08231146102ad57806395d89b41146102dd578063a22cb465146102fb57610116565b806323b872dd116100e957806323b872dd146101b55780632aeae2d1146101d157806342842e0e1461020157806348a9bf321461021d5780636352211e1461024d57610116565b806301ffc9a71461011b57806306fdde031461014b578063081812fc14610169578063095ea7b314610199575b600080fd5b610135600480360381019061013091906126aa565b6103cd565b60405161014291906133dc565b60405180910390f35b6101536104af565b60405161016091906133f7565b60405180910390f35b610183600480360381019061017e91906126fc565b610541565b604051610190919061334c565b60405180910390f35b6101b360048036038101906101ae919061266e565b6105c6565b005b6101cf60048036038101906101ca9190612568565b6106de565b005b6101eb60048036038101906101e691906126fc565b61073e565b6040516101f891906133f7565b60405180910390f35b61021b60048036038101906102169190612568565b61085c565b005b610237600480360381019061023291906126fc565b61087c565b60405161024491906133f7565b60405180910390f35b610267600480360381019061026291906126fc565b61099a565b604051610274919061334c565b60405180910390f35b610297600480360381019061029291906126fc565b610a4c565b6040516102a491906133f7565b60405180910390f35b6102c760048036038101906102c29190612503565b610b6a565b6040516102d49190613657565b60405180910390f35b6102e5610c22565b6040516102f291906133f7565b60405180910390f35b61031560048036038101906103109190612632565b610cb4565b005b610331600480360381019061032c91906126fc565b610e35565b60405161033e91906133f7565b60405180910390f35b610361600480360381019061035c91906125b7565b610f53565b005b61036b610fb5565b005b610387600480360381019061038291906126fc565b611231565b60405161039491906133f7565b60405180910390f35b6103b760048036038101906103b2919061252c565b611383565b6040516103c491906133dc565b60405180910390f35b60007f80ac58cd000000000000000000000000000000000000000000000000000000007bffffffffffffffffffffffffffffffffffffffffffffffffffffffff1916827bffffffffffffffffffffffffffffffffffffffffffffffffffffffff1916148061049857507f5b5e139f000000000000000000000000000000000000000000000000000000007bffffffffffffffffffffffffffffffffffffffffffffffffffffffff1916827bffffffffffffffffffffffffffffffffffffffffffffffffffffffff1916145b806104a857506104a7826114b0565b5b9050919050565b6060600080546104be906138f6565b80601f01602080910402602001604051908101604052809291908181526020018280546104ea906138f6565b80156105375780601f1061050c57610100808354040283529160200191610537565b820191906000526020600020905b81548152906001019060200180831161051a57829003601f168201915b5050505050905090565b600061054c8261151a565b61058b576040517f08c379a0000000000000000000000000000000000000000000000000000000008152600401610582906135b7565b60405180910390fd5b6004600083815260200190815260200160002060009054906101000a900473ffffffffffffffffffffffffffffffffffffffff169050919050565b60006105d18261099a565b90508073ffffffffffffffffffffffffffffffffffffffff168373ffffffffffffffffffffffffffffffffffffffff161415610642576040517f08c379a000000000000000000000000000000000000000000000000000000000815260040161063990613617565b60405180910390fd5b8073ffffffffffffffffffffffffffffffffffffffff16610661611586565b73ffffffffffffffffffffffffffffffffffffffff161480610690575061068f8161068a611586565b611383565b5b6106cf576040517f08c379a00000000000000000000000000000000000000000000000000000000081526004016106c6906134f7565b60405180910390fd5b6106d9838361158e565b505050565b6106ef6106e9611586565b82611647565b61072e576040517f08c379a000000000000000000000000000000000000000000000000000000000815260040161072590613637565b60405180910390fd5b610739838383611725565b505050565b6060600061077261074e84611981565b60405160200161075e91906132a1565b604051602081830303815290604052611b2e565b9050600b80549050816107859190613971565b9050600b81815481106107c1577f4e487b7100000000000000000000000000000000000000000000000000000000600052603260045260246000fd5b9060005260206000200180546107d6906138f6565b80601f0160208091040260200160405190810160405280929190818152602001828054610802906138f6565b801561084f5780601f106108245761010080835404028352916020019161084f565b820191906000526020600020905b81548152906001019060200180831161083257829003601f168201915b5050505050915050919050565b61087783838360405180602001604052806000815250610f53565b505050565b606060006108b061088c84611981565b60405160200161089c9190613308565b604051602081830303815290604052611b2e565b9050600980549050816108c39190613971565b9050600981815481106108ff577f4e487b7100000000000000000000000000000000000000000000000000000000600052603260045260246000fd5b906000526020600020018054610914906138f6565b80601f0160208091040260200160405190810160405280929190818152602001828054610940906138f6565b801561098d5780601f106109625761010080835404028352916020019161098d565b820191906000526020600020905b81548152906001019060200180831161097057829003601f168201915b5050505050915050919050565b6000806002600084815260200190815260200160002060009054906101000a900473ffffffffffffffffffffffffffffffffffffffff169050600073ffffffffffffffffffffffffffffffffffffffff168173ffffffffffffffffffffffffffffffffffffffff161415610a43576040517f08c379a0000000000000000000000000000000000000000000000000000000008152600401610a3a90613537565b60405180910390fd5b80915050919050565b60606000610a80610a5c84611981565b604051602001610a6c919061325d565b604051602081830303815290604052611b2e565b9050600c8054905081610a939190613971565b9050600c8181548110610acf577f4e487b7100000000000000000000000000000000000000000000000000000000600052603260045260246000fd5b906000526020600020018054610ae4906138f6565b80601f0160208091040260200160405190810160405280929190818152602001828054610b10906138f6565b8015610b5d5780601f10610b3257610100808354040283529160200191610b5d565b820191906000526020600020905b815481529060010190602001808311610b4057829003601f168201915b5050505050915050919050565b60008073ffffffffffffffffffffffffffffffffffffffff168273ffffffffffffffffffffffffffffffffffffffff161415610bdb576040517f08c379a0000000000000000000000000000000000000000000000000000000008152600401610bd290613517565b60405180910390fd5b600360008373ffffffffffffffffffffffffffffffffffffffff1673ffffffffffffffffffffffffffffffffffffffff168152602001908152602001600020549050919050565b606060018054610c31906138f6565b80601f0160208091040260200160405190810160405280929190818152602001828054610c5d906138f6565b8015610caa5780601f10610c7f57610100808354040283529160200191610caa565b820191906000526020600020905b815481529060010190602001808311610c8d57829003601f168201915b5050505050905090565b610cbc611586565b73ffffffffffffffffffffffffffffffffffffffff168273ffffffffffffffffffffffffffffffffffffffff161415610d2a576040517f08c379a0000000000000000000000000000000000000000000000000000000008152600401610d21906134b7565b60405180910390fd5b8060056000610d37611586565b73ffffffffffffffffffffffffffffffffffffffff1673ffffffffffffffffffffffffffffffffffffffff16815260200190815260200160002060008473ffffffffffffffffffffffffffffffffffffffff1673ffffffffffffffffffffffffffffffffffffffff16815260200190815260200160002060006101000a81548160ff0219169083151502179055508173ffffffffffffffffffffffffffffffffffffffff16610de4611586565b73ffffffffffffffffffffffffffffffffffffffff167f17307eab39ab6107e8899845ad3d59bd9653f200f220920489ca2b5937696c3183604051610e2991906133dc565b60405180910390a35050565b60606000610e69610e4584611981565b604051602001610e55919061327f565b604051602081830303815290604052611b2e565b9050600a8054905081610e7c9190613971565b9050600a8181548110610eb8577f4e487b7100000000000000000000000000000000000000000000000000000000600052603260045260246000fd5b906000526020600020018054610ecd906138f6565b80601f0160208091040260200160405190810160405280929190818152602001828054610ef9906138f6565b8015610f465780601f10610f1b57610100808354040283529160200191610f46565b820191906000526020600020905b815481529060010190602001808311610f2957829003601f168201915b5050505050915050919050565b610f64610f5e611586565b83611647565b610fa3576040517f08c379a0000000000000000000000000000000000000000000000000000000008152600401610f9a90613637565b60405180910390fd5b610faf84848484611b61565b50505050565b6000610fc16007611bbd565b90506000610fce8261087c565b90506000610fdb83610e35565b90506000610fe88461073e565b90506000610ff585610a4c565b905060008484848460405160200161101094939291906131cf565b6040516020818303038152906040529050600060088260405160200161103792919061322e565b60405160208183030381529060405290506110866040518060400160405280601581526020017f0a2d2d2d2d2d2d2d2d2d2d2d2d2d2d2d2d2d2d2d2d0000000000000000000000815250611417565b61108f81611417565b6110cd6040518060400160405280601581526020017f2d2d2d2d2d2d2d2d2d2d2d2d2d2d2d2d2d2d2d2d0a0000000000000000000000815250611417565b6000611101836110dc84611bcb565b6040516020016110ed9291906132c3565b604051602081830303815290604052611bcb565b9050600081604051602001611116919061332a565b60405160208183030381529060405290506111656040518060400160405280601581526020017f0a2d2d2d2d2d2d2d2d2d2d2d2d2d2d2d2d2d2d2d2d0000000000000000000000815250611417565b61116e81611417565b6111ac6040518060400160405280601581526020017f2d2d2d2d2d2d2d2d2d2d2d2d2d2d2d2d2d2d2d2d0a0000000000000000000000815250611417565b6111b6338a611d89565b6111c08982611da7565b6111e3604051806060016040528060258152602001613acc602591398a33611e1b565b6111ed6007611eba565b7febb98688741ffa4c7589bf325de30cf7becb63de567842e1ccdb6cb949fdc82c338a60405161121e9291906133b3565b60405180910390a1505050505050505050565b606061123c8261151a565b61127b576040517f08c379a000000000000000000000000000000000000000000000000000000000815260040161127290613597565b60405180910390fd5b600060066000848152602001908152602001600020805461129b906138f6565b80601f01602080910402602001604051908101604052809291908181526020018280546112c7906138f6565b80156113145780601f106112e957610100808354040283529160200191611314565b820191906000526020600020905b8154815290600101906020018083116112f757829003601f168201915b505050505090506000611325611ed0565b905060008151141561133b57819250505061137e565b6000825111156113705780826040516020016113589291906131ab565b6040516020818303038152906040529250505061137e565b61137984611ee7565b925050505b919050565b6000600560008473ffffffffffffffffffffffffffffffffffffffff1673ffffffffffffffffffffffffffffffffffffffff16815260200190815260200160002060008373ffffffffffffffffffffffffffffffffffffffff1673ffffffffffffffffffffffffffffffffffffffff16815260200190815260200160002060009054906101000a900460ff16905092915050565b6114ad8160405160240161142b91906133f7565b6040516020818303038152906040527f41304fac000000000000000000000000000000000000000000000000000000007bffffffffffffffffffffffffffffffffffffffffffffffffffffffff19166020820180517bffffffffffffffffffffffffffffffffffffffffffffffffffffffff8381831617835250505050611f8e565b50565b60007f01ffc9a7000000000000000000000000000000000000000000000000000000007bffffffffffffffffffffffffffffffffffffffffffffffffffffffff1916827bffffffffffffffffffffffffffffffffffffffffffffffffffffffff1916149050919050565b60008073ffffffffffffffffffffffffffffffffffffffff166002600084815260200190815260200160002060009054906101000a900473ffffffffffffffffffffffffffffffffffffffff1673ffffffffffffffffffffffffffffffffffffffff1614159050919050565b600033905090565b816004600083815260200190815260200160002060006101000a81548173ffffffffffffffffffffffffffffffffffffffff021916908373ffffffffffffffffffffffffffffffffffffffff160217905550808273ffffffffffffffffffffffffffffffffffffffff166116018361099a565b73ffffffffffffffffffffffffffffffffffffffff167f8c5be1e5ebec7d5bd14f71427d1e84f3dd0314c0f7b2291e5b200ac8c7c3b92560405160405180910390a45050565b60006116528261151a565b611691576040517f08c379a0000000000000000000000000000000000000000000000000000000008152600401611688906134d7565b60405180910390fd5b600061169c8361099a565b90508073ffffffffffffffffffffffffffffffffffffffff168473ffffffffffffffffffffffffffffffffffffffff16148061170b57508373ffffffffffffffffffffffffffffffffffffffff166116f384610541565b73ffffffffffffffffffffffffffffffffffffffff16145b8061171c575061171b8185611383565b5b91505092915050565b8273ffffffffffffffffffffffffffffffffffffffff166117458261099a565b73ffffffffffffffffffffffffffffffffffffffff161461179b576040517f08c379a0000000000000000000000000000000000000000000000000000000008152600401611792906135d7565b60405180910390fd5b600073ffffffffffffffffffffffffffffffffffffffff168273ffffffffffffffffffffffffffffffffffffffff16141561180b576040517f08c379a000000000000000000000000000000000000000000000000000000000815260040161180290613497565b60405180910390fd5b611816838383611fb7565b61182160008261158e565b6001600360008573ffffffffffffffffffffffffffffffffffffffff1673ffffffffffffffffffffffffffffffffffffffff1681526020019081526020016000206000828254611871919061380c565b925050819055506001600360008473ffffffffffffffffffffffffffffffffffffffff1673ffffffffffffffffffffffffffffffffffffffff16815260200190815260200160002060008282546118c8919061372b565b92505081905550816002600083815260200190815260200160002060006101000a81548173ffffffffffffffffffffffffffffffffffffffff021916908373ffffffffffffffffffffffffffffffffffffffff160217905550808273ffffffffffffffffffffffffffffffffffffffff168473ffffffffffffffffffffffffffffffffffffffff167fddf252ad1be2c89b69c2b068fc378daa952ba7f163c4a11628f55a4df523b3ef60405160405180910390a4505050565b606060008214156119c9576040518060400160405280600181526020017f30000000000000000000000000000000000000000000000000000000000000008152509050611b29565b600082905060005b600082146119fb5780806119e490613928565b915050600a826119f49190613781565b91506119d1565b60008167ffffffffffffffff811115611a3d577f4e487b7100000000000000000000000000000000000000000000000000000000600052604160045260246000fd5b6040519080825280601f01601f191660200182016040528015611a6f5781602001600182028036833780820191505090505b5090505b60008514611b2257600182611a88919061380c565b9150600a85611a979190613971565b6030611aa3919061372b565b60f81b818381518110611adf577f4e487b7100000000000000000000000000000000000000000000000000000000600052603260045260246000fd5b60200101907effffffffffffffffffffffffffffffffffffffffffffffffffffffffffffff1916908160001a905350600a85611b1b9190613781565b9450611a73565b8093505050505b919050565b600081604051602001611b419190613194565b6040516020818303038152906040528051906020012060001c9050919050565b611b6c848484611725565b611b7884848484611fbc565b611bb7576040517f08c379a0000000000000000000000000000000000000000000000000000000008152600401611bae90613457565b60405180910390fd5b50505050565b600081600001549050919050565b60606000825190506000811415611bf45760405180602001604052806000815250915050611d84565b60006003600283611c05919061372b565b611c0f9190613781565b6004611c1b91906137b2565b90506000602082611c2c919061372b565b67ffffffffffffffff811115611c6b577f4e487b7100000000000000000000000000000000000000000000000000000000600052604160045260246000fd5b6040519080825280601f01601f191660200182016040528015611c9d5781602001600182028036833780820191505090505b5090506000604051806060016040528060408152602001613af1604091399050600181016020830160005b86811015611d415760038101905062ffffff818a015116603f8160121c168401518060081b905060ff603f83600c1c1686015116810190508060081b905060ff603f8360061c1686015116810190508060081b905060ff603f831686015116810190508060e01b90508084526004840193505050611cc8565b506003860660018114611d5b5760028114611d6b57611d76565b613d3d60f01b6002830352611d76565b603d60f81b60018303525b508484525050819450505050505b919050565b611da3828260405180602001604052806000815250612153565b5050565b611db08261151a565b611def576040517f08c379a0000000000000000000000000000000000000000000000000000000008152600401611de690613557565b60405180910390fd5b80600660008481526020019081526020016000209080519060200190611e1692919061238f565b505050565b611eb5838383604051602401611e3393929190613419565b6040516020818303038152906040527fe3849f79000000000000000000000000000000000000000000000000000000007bffffffffffffffffffffffffffffffffffffffffffffffffffffffff19166020820180517bffffffffffffffffffffffffffffffffffffffffffffffffffffffff8381831617835250505050611f8e565b505050565b6001816000016000828254019250508190555050565b606060405180602001604052806000815250905090565b6060611ef28261151a565b611f31576040517f08c379a0000000000000000000000000000000000000000000000000000000008152600401611f28906135f7565b60405180910390fd5b6000611f3b611ed0565b90506000815111611f5b5760405180602001604052806000815250611f86565b80611f6584611981565b604051602001611f769291906131ab565b6040516020818303038152906040525b915050919050565b60008151905060006a636f6e736f6c652e6c6f679050602083016000808483855afa5050505050565b505050565b6000611fdd8473ffffffffffffffffffffffffffffffffffffffff166121ae565b15612146578373ffffffffffffffffffffffffffffffffffffffff1663150b7a02612006611586565b8786866040518563ffffffff1660e01b81526004016120289493929190613367565b602060405180830381600087803b15801561204257600080fd5b505af192505050801561207357506040513d601f19601f8201168201806040525081019061207091906126d3565b60015b6120f6573d80600081146120a3576040519150601f19603f3d011682016040523d82523d6000602084013e6120a8565b606091505b506000815114156120ee576040517f08c379a00000000000000000000000000000000000000000000000000000000081526004016120e590613457565b60405180910390fd5b805181602001fd5b63150b7a0260e01b7bffffffffffffffffffffffffffffffffffffffffffffffffffffffff1916817bffffffffffffffffffffffffffffffffffffffffffffffffffffffff19161491505061214b565b600190505b949350505050565b61215d83836121c1565b61216a6000848484611fbc565b6121a9576040517f08c379a00000000000000000000000000000000000000000000000000000000081526004016121a090613457565b60405180910390fd5b505050565b600080823b905060008111915050919050565b600073ffffffffffffffffffffffffffffffffffffffff168273ffffffffffffffffffffffffffffffffffffffff161415612231576040517f08c379a000000000000000000000000000000000000000000000000000000000815260040161222890613577565b60405180910390fd5b61223a8161151a565b1561227a576040517f08c379a000000000000000000000000000000000000000000000000000000000815260040161227190613477565b60405180910390fd5b61228660008383611fb7565b6001600360008473ffffffffffffffffffffffffffffffffffffffff1673ffffffffffffffffffffffffffffffffffffffff16815260200190815260200160002060008282546122d6919061372b565b92505081905550816002600083815260200190815260200160002060006101000a81548173ffffffffffffffffffffffffffffffffffffffff021916908373ffffffffffffffffffffffffffffffffffffffff160217905550808273ffffffffffffffffffffffffffffffffffffffff16600073ffffffffffffffffffffffffffffffffffffffff167fddf252ad1be2c89b69c2b068fc378daa952ba7f163c4a11628f55a4df523b3ef60405160405180910390a45050565b82805461239b906138f6565b90600052602060002090601f0160209004810192826123bd5760008555612404565b82601f106123d657805160ff1916838001178555612404565b82800160010185558215612404579182015b828111156124035782518255916020019190600101906123e8565b5b5090506124119190612415565b5090565b5b8082111561242e576000816000905550600101612416565b5090565b6000612445612440846136a3565b613672565b90508281526020810184848401111561245d57600080fd5b6124688482856138b4565b509392505050565b60008135905061247f81613a6f565b92915050565b60008135905061249481613a86565b92915050565b6000813590506124a981613a9d565b92915050565b6000815190506124be81613a9d565b92915050565b600082601f8301126124d557600080fd5b81356124e5848260208601612432565b91505092915050565b6000813590506124fd81613ab4565b92915050565b60006020828403121561251557600080fd5b600061252384828501612470565b91505092915050565b6000806040838503121561253f57600080fd5b600061254d85828601612470565b925050602061255e85828601612470565b9150509250929050565b60008060006060848603121561257d57600080fd5b600061258b86828701612470565b935050602061259c86828701612470565b92505060406125ad868287016124ee565b9150509250925092565b600080600080608085870312156125cd57600080fd5b60006125db87828801612470565b94505060206125ec87828801612470565b93505060406125fd878288016124ee565b925050606085013567ffffffffffffffff81111561261a57600080fd5b612626878288016124c4565b91505092959194509250565b6000806040838503121561264557600080fd5b600061265385828601612470565b925050602061266485828601612485565b9150509250929050565b6000806040838503121561268157600080fd5b600061268f85828601612470565b92505060206126a0858286016124ee565b9150509250929050565b6000602082840312156126bc57600080fd5b60006126ca8482850161249a565b91505092915050565b6000602082840312156126e557600080fd5b60006126f3848285016124af565b91505092915050565b60006020828403121561270e57600080fd5b600061271c848285016124ee565b91505092915050565b61272e81613840565b82525050565b61273d81613852565b82525050565b600061274e826136e8565b61275881856136fe565b93506127688185602086016138c3565b61277181613a5e565b840191505092915050565b6000612787826136f3565b612791818561370f565b93506127a18185602086016138c3565b6127aa81613a5e565b840191505092915050565b60006127c0826136f3565b6127ca8185613720565b93506127da8185602086016138c3565b80840191505092915050565b600081546127f3816138f6565b6127fd8186613720565b9450600182166000811461281857600181146128295761285c565b60ff1983168652818601935061285c565b612832856136d3565b60005b8381101561285457815481890152600182019150602081019050612835565b838801955050505b50505092915050565b600061287260328361370f565b91507f4552433732313a207472616e7366657220746f206e6f6e20455243373231526560008301527f63656976657220696d706c656d656e74657200000000000000000000000000006020830152604082019050919050565b60006128d8600b83613720565b91507f464f555254485f574f52440000000000000000000000000000000000000000006000830152600b82019050919050565b6000612918601c8361370f565b91507f4552433732313a20746f6b656e20616c7265616479206d696e746564000000006000830152602082019050919050565b6000612958600b83613720565b91507f20506c6163652049443a200000000000000000000000000000000000000000006000830152600b82019050919050565b600061299860248361370f565b91507f4552433732313a207472616e7366657220746f20746865207a65726f2061646460008301527f72657373000000000000000000000000000000000000000000000000000000006020830152604082019050919050565b60006129fe60198361370f565b91507f4552433732313a20617070726f766520746f2063616c6c6572000000000000006000830152602082019050919050565b6000612a3e600b83613720565b91507f5345434f4e445f574f52440000000000000000000000000000000000000000006000830152600b82019050919050565b6000612a7e602c8361370f565b91507f4552433732313a206f70657261746f7220717565727920666f72206e6f6e657860008301527f697374656e7420746f6b656e00000000000000000000000000000000000000006020830152604082019050919050565b6000612ae4600883613720565b91507f54484952445f49440000000000000000000000000000000000000000000000006000830152600882019050919050565b6000612b24600d83613720565b91507f3c2f746578743e3c2f7376673e000000000000000000000000000000000000006000830152600d82019050919050565b6000612b64600183613720565b91507f20000000000000000000000000000000000000000000000000000000000000006000830152600182019050919050565b6000612ba460388361370f565b91507f4552433732313a20617070726f76652063616c6c6572206973206e6f74206f7760008301527f6e6572206e6f7220617070726f76656420666f7220616c6c00000000000000006020830152604082019050919050565b6000612c0a602a8361370f565b91507f4552433732313a2062616c616e636520717565727920666f7220746865207a6560008301527f726f2061646472657373000000000000000000000000000000000000000000006020830152604082019050919050565b6000612c7060298361370f565b91507f4552433732313a206f776e657220717565727920666f72206e6f6e657869737460008301527f656e7420746f6b656e00000000000000000000000000000000000000000000006020830152604082019050919050565b6000612cd6602e8361370f565b91507f45524337323155524953746f726167653a2055524920736574206f66206e6f6e60008301527f6578697374656e7420746f6b656e0000000000000000000000000000000000006020830152604082019050919050565b6000612d3c600283613720565b91507f227d0000000000000000000000000000000000000000000000000000000000006000830152600282019050919050565b6000612d7c60208361370f565b91507f4552433732313a206d696e7420746f20746865207a65726f20616464726573736000830152602082019050919050565b6000612dbc60318361370f565b91507f45524337323155524953746f726167653a2055524920717565727920666f722060008301527f6e6f6e6578697374656e7420746f6b656e0000000000000000000000000000006020830152604082019050919050565b6000612e22602c8361370f565b91507f4552433732313a20617070726f76656420717565727920666f72206e6f6e657860008301527f697374656e7420746f6b656e00000000000000000000000000000000000000006020830152604082019050919050565b6000612e8860298361370f565b91507f4552433732313a207472616e73666572206f6620746f6b656e2074686174206960008301527f73206e6f74206f776e00000000000000000000000000000000000000000000006020830152604082019050919050565b6000612eee602f8361370f565b91507f4552433732314d657461646174613a2055524920717565727920666f72206e6f60008301527f6e6578697374656e7420746f6b656e00000000000000000000000000000000006020830152604082019050919050565b6000612f54606383613720565b91507f222c20226465736372697074696f6e223a20224120686967686c79206163636c60008301527f61696d656420636f6c6c656374696f6e206f66207469636b6574732e222c202260208301527f696d616765223a2022646174613a696d6167652f7376672b786d6c3b6261736560408301527f36342c00000000000000000000000000000000000000000000000000000000006060830152606382019050919050565b6000613006600a83613720565b91507f7b226e616d65223a2022000000000000000000000000000000000000000000006000830152600a82019050919050565b600061304660218361370f565b91507f4552433732313a20617070726f76616c20746f2063757272656e74206f776e6560008301527f72000000000000000000000000000000000000000000000000000000000000006020830152604082019050919050565b60006130ac600a83613720565b91507f46495253545f574f5244000000000000000000000000000000000000000000006000830152600a82019050919050565b60006130ec601d83613720565b91507f646174613a6170706c69636174696f6e2f6a736f6e3b6261736536342c0000006000830152601d82019050919050565b600061312c60318361370f565b91507f4552433732313a207472616e736665722063616c6c6572206973206e6f74206f60008301527f776e6572206e6f7220617070726f7665640000000000000000000000000000006020830152604082019050919050565b61318e816138aa565b82525050565b60006131a082846127b5565b915081905092915050565b60006131b782856127b5565b91506131c382846127b5565b91508190509392505050565b60006131db82876127b5565b91506131e682612b57565b91506131f282866127b5565b91506131fd8261294b565b915061320982856127b5565b915061321482612b57565b915061322082846127b5565b915081905095945050505050565b600061323a82856127e6565b915061324682846127b5565b915061325182612b17565b91508190509392505050565b6000613268826128cb565b915061327482846127b5565b915081905092915050565b600061328a82612a31565b915061329682846127b5565b915081905092915050565b60006132ac82612ad7565b91506132b882846127b5565b915081905092915050565b60006132ce82612ff9565b91506132da82856127b5565b91506132e582612f47565b91506132f182846127b5565b91506132fc82612d2f565b91508190509392505050565b60006133138261309f565b915061331f82846127b5565b915081905092915050565b6000613335826130df565b915061334182846127b5565b915081905092915050565b60006020820190506133616000830184612725565b92915050565b600060808201905061337c6000830187612725565b6133896020830186612725565b6133966040830185613185565b81810360608301526133a88184612743565b905095945050505050565b60006040820190506133c86000830185612725565b6133d56020830184613185565b9392505050565b60006020820190506133f16000830184612734565b92915050565b60006020820190508181036000830152613411818461277c565b905092915050565b60006060820190508181036000830152613433818661277c565b90506134426020830185613185565b61344f6040830184612725565b949350505050565b6000602082019050818103600083015261347081612865565b9050919050565b600060208201905081810360008301526134908161290b565b9050919050565b600060208201905081810360008301526134b08161298b565b9050919050565b600060208201905081810360008301526134d0816129f1565b9050919050565b600060208201905081810360008301526134f081612a71565b9050919050565b6000602082019050818103600083015261351081612b97565b9050919050565b6000602082019050818103600083015261353081612bfd565b9050919050565b6000602082019050818103600083015261355081612c63565b9050919050565b6000602082019050818103600083015261357081612cc9565b9050919050565b6000602082019050818103600083015261359081612d6f565b9050919050565b600060208201905081810360008301526135b081612daf565b9050919050565b600060208201905081810360008301526135d081612e15565b9050919050565b600060208201905081810360008301526135f081612e7b565b9050919050565b6000602082019050818103600083015261361081612ee1565b9050919050565b6000602082019050818103600083015261363081613039565b9050919050565b600060208201905081810360008301526136508161311f565b9050919050565b600060208201905061366c6000830184613185565b92915050565b6000604051905081810181811067ffffffffffffffff8211171561369957613698613a2f565b5b8060405250919050565b600067ffffffffffffffff8211156136be576136bd613a2f565b5b601f19601f8301169050602081019050919050565b60008190508160005260206000209050919050565b600081519050919050565b600081519050919050565b600082825260208201905092915050565b600082825260208201905092915050565b600081905092915050565b6000613736826138aa565b9150613741836138aa565b9250827fffffffffffffffffffffffffffffffffffffffffffffffffffffffffffffffff03821115613776576137756139a2565b5b828201905092915050565b600061378c826138aa565b9150613797836138aa565b9250826137a7576137a66139d1565b5b828204905092915050565b60006137bd826138aa565b91506137c8836138aa565b9250817fffffffffffffffffffffffffffffffffffffffffffffffffffffffffffffffff0483118215151615613801576138006139a2565b5b828202905092915050565b6000613817826138aa565b9150613822836138aa565b925082821015613835576138346139a2565b5b828203905092915050565b600061384b8261388a565b9050919050565b60008115159050919050565b60007fffffffff0000000000000000000000000000000000000000000000000000000082169050919050565b600073ffffffffffffffffffffffffffffffffffffffff82169050919050565b6000819050919050565b82818337600083830152505050565b60005b838110156138e15780820151818401526020810190506138c6565b838111156138f0576000848401525b50505050565b6000600282049050600182168061390e57607f821691505b6020821081141561392257613921613a00565b5b50919050565b6000613933826138aa565b91507fffffffffffffffffffffffffffffffffffffffffffffffffffffffffffffffff821415613966576139656139a2565b5b600182019050919050565b600061397c826138aa565b9150613987836138aa565b925082613997576139966139d1565b5b828206905092915050565b7f4e487b7100000000000000000000000000000000000000000000000000000000600052601160045260246000fd5b7f4e487b7100000000000000000000000000000000000000000000000000000000600052601260045260246000fd5b7f4e487b7100000000000000000000000000000000000000000000000000000000600052602260045260246000fd5b7f4e487b7100000000000000000000000000000000000000000000000000000000600052604160045260246000fd5b6000601f19601f8301169050919050565b613a7881613840565b8114613a8357600080fd5b50565b613a8f81613852565b8114613a9a57600080fd5b50565b613aa68161385e565b8114613ab157600080fd5b50565b613abd816138aa565b8114613ac857600080fd5b5056fe416e204e465420772f20494420257320686173206265656e206d696e74656420746f2025734142434445464748494a4b4c4d4e4f505152535455565758595a6162636465666768696a6b6c6d6e6f707172737475767778797a303132333435363738392b2fa26469706673582212207e8498612a9fcd67e42fced7eb9526c1098444e5b8e38ccc03b80db89df6389664736f6c634300080000333c73766720786d6c6e733d27687474703a2f2f7777772e77332e6f72672f323030302f73766727207072657365727665417370656374526174696f3d27784d696e594d696e206d656574272076696577426f783d273020302037353020333530273e3c7374796c653e2e62617365207b2066696c6c3a20626c61636b3b20666f6e742d66616d696c793a2053616e732c417269616c3b20666f6e742d73697a653a20323470783b207d203c2f7374796c653e3c726563742077696474683d273130302527206865696768743d2731303025272066696c6c3d272346454646444227202f3e3c7465787420783d273530252720793d273530252720636c6173733d27626173652720646f6d696e616e742d626173656c696e653d276d6964646c652720746578742d616e63686f723d276d6964646c65273e",
  "linkReferences": {},
  "deployedLinkReferences": {}
}